:020000040000FA
:0600000002010702264D7B
:03002B0002289513
:0300430002286D23
:030053000226C3BF
:030073000228BAA6
:100083000224A3E5C754F84401F5C779012200000F
:100093000080FB120086B900030200F1E4791A78AC
:1000A30002B800028004F709D8FCE4791C7802B88E
:1000B30000028004F709D8FCE490028178E6791BFA
:1000C3008002F0A3D8FCD9FA7A667B1D90013778B9
:1000D3000C79028015E493A3AD82AE838A828B836D
:1000E300F0A3AA82AB838D828E83D8E9D9E7758288
:1000F3007F7583FF740112011975829175830074F2
:100103000012011975D00075813F751881751902A8
:10011300759F00020096C09FF59FE473D09F22D085
:1001230083D082C09FE493C0E0740193C0E0740263
:1001330093F59F22F203FE0334042E04FF0000B460
:10014300000028002800283075A000A000A000A00F
:100153000000080008E001F000100010001000107B
:10016300001000100050005000500010001000D08C
:10017300070000000000000F0001000500307507B4
:10018300001000010081FF00000000FFFFFF0202DA
:10019300027183010000CD82026B83010000C01D48
:1001A300026783010000B802026B83010000C11DD6
:1001B300026583010000CE02FFFF0100FF200271F0
:1001C300830100006283026B83010000EF1D026D57
:1001D300830000000000026983030000FA02170095
:1001E300900E900E900E900E900E900E900E900E1C
:1001F300900E900E900E900E900E9A10B8109410D0
:1002030001E803057710020AA001000000010101C3
:1002130002010402000000020402050300000003BF
:1002230001050000000501050205030504000000A7
:1002330000192A0005090C12FFFEFFFFFFFF001241
:100243000122468D04120122598D041201227A8D56
:1002530004120122E58D04120122268E04120122CA
:10026300478E04120122688E04120122A98E041201
:100273000122418F04120122898F04120122B48FBB
:1002830004120122E88304120122FB8304120122D7
:100293002C8404120122668404120122BF840412F6
:1002A30001220685041201224E85041201227D8556
:1002B30004120122AC8504120122E38504120122F7
:1002C3002A8604120122438604120122988604120C
:1002D3000122C6860412012200870412012275DC62
:1002E3000212012278DD02120122A5DD021201228F
:1002F300F6DD0212012219DE021201222BDE0212A6
:1003030001222EDE021201226CDE02120122A2DE83
:100313000212012239DF02120122A5DF0212012299
:100323006DE00212012289E002120122C0E00212F2
:100333000122FAE00212012291E102120122E3E119
:100343000212012214E20212012217E20212012216
:1003530048E20212012255E2021201226DE2021268
:100363000122D7E202120122DAE202120122E7E2BB
:1003730002120122EAE20212012241E302120122E5
:1003830052E3021201228BE3021201228EE30212D4
:100393000122C2E302120122C5E30212012219E47F
:1003A3000212012262E40212012272E40212012209
:1003B300A5E402120122B2E402120122B5E4021200
:1003C30001221DE5021201221FE602120122C3E6E9
:1003D300021201222CE7021201226AE70212012211
:1003E3008293031201227A9403120122AE94031220
:1003F30001224495031201228F9503120122F395E2
:10040300031201227D960312012236970312012261
:10041300589A03120122D59B03120122F89B03125F
:10042300012274F80312012219FA0312012239FA84
:10043300031201225AFB03120122ADFB0312012214
:10044300D0FB02120122F8FB0212012225FC021248
:1004530001225DFC02120122BBFC0212012207FDF4
:10046300021201226EFD02120122AEFD02120122CE
:10047300EBFD0212012219FE02120122C3FE021237
:100483000122CDFE02120122DAFE021201220DFF29
:100493000212012219FF0212012231FF021201226C
:1004A3003BFF021201228E9E041201229C9E041223
:1004B3000122B49E04120122CC9E04120122E39E67
:1004C30004120122006E00120122AA6E0012012200
:1004D300266F001201224470001201228070001264
:1004E30001221B7100120122FF7100120122C2724C
:1004F300001201223A7300120122C8740012012271
:10050300397500120122F37500120122E5760012FB
:100513000122257700120122D977001201220B78DC
:1005230000120122017A00120122437A00120122F1
:10053300617A00120122E67A00120122AA7B0012DC
:100543000122C97D001201220080041201221680BB
:100553000412012234800412012245810412012273
:100563004F81041201227A82041201227183041240
:100573000122DE83041201223CE603120122E0E69B
:100583000312012217E70312012261E7031201227A
:1005930020E90312012275BA0112012226BB0112BE
:1005A300012242BB0112012203BC0112012238BC09
:1005B30001120122B1BC01120122E5BC0112012288
:1005C300F0BC01120122C6BD01120122A3BE011219
:1005D300012200BF0112012290BF0112012247C074
:1005E3000112012255C30112012244C50112012245
:1005F300F6C501120122BFC60112012204CA01126B
:100603000122AECA01120122D7CB0112012293CDDE
:100613000112012233CE0112012281CE01120122E5
:10062300C0CE0112012293CF01120122C7CF0112C2
:10063300012254D00112012259E701120122E5E7F8
:100643000112012249E90112012255E90112012295
:1006530090E901120122FFE90112012208EB0112C4
:10066300012211EC01120122D8EC0112012235EE14
:100673000112012253EE0112012270EE0112012236
:100683003BEF0112012263EF011201222DF201124D
:10069300012232F2011201224BF40112012299F4D8
:1006A3000112012209F50112012247F5011201226B
:1006B30023F601120122E3F6011201222FF70112A0
:1006C300012232F70112012276F701120122BEF74D
:1006D30001120122FDF7011201221FF8011201226A
:1006E30053F801120122B6F801120122F2D20312C9
:1006F3000122FBD20312012209D3031201225CD38C
:10070300031201227BD303120122C0D3031201225D
:1007130004D5031201229FD503120122E3D503124C
:1007230001220DD6031201227CD603120122C2D666
:100733000312012239D703120122EAD7031201223D
:10074300EA4D00120122FA4D001201229B4E0012C3
:100753000122F74E00120122B44F00120122D050A1
:100763000012012202510012012231510012012212
:10077300DE5200120122555500120122C557001204
:100783000122B75800120122B05900120122B75BAF
:1007930000120122AB5E00120122DA5F0012012275
:1007A300DE6100120122EE62001201227D6400125A
:1007B30001226E6500120122BC65001201222B6624
:1007C300001201224F6600120122A06600120122CC
:1007D300416B00120122426C00120122A36C001231
:1007E3000122CE6C00120122946D00120122B9ABDA
:1007F30002120122C3AB0212012208AC021201222F
:100803001CAC0212012254AC021201229DAC021252
:100813000122DEAC0212012221AD021201224BADF4
:1008230002120122D4AD021201227FAE0212012272
:10083300AEAE02120122D6AE0212012211AF021293
:10084300012246AF0212012270AF0212012299AFB8
:1008530002120122CDAF02120122E2AF02120122E3
:100863004DB0021201226EB00212012296B00212A2
:100873000122AAB002120122BFB002120122D4B097
:1008830002120122E8B0021201222CB1021201224B
:1008930082B102120122BCB102120122E0B10212A2
:1008A30001220AB2021201221FB20212012234B241
:1008B3000212012264B202120122AFB20212012219
:1008C30000B3021201223BB30212012277B30212D8
:1008D3000122A2B3021201220DB40212012237B483
:1008E3000212012262B4021201229FB402120122F7
:1008F300CAB402120122FBB40212012238B5021259
:10090300012262B5021201228CB502120122B6B590
:1009130002120122EAB50212012214B602120122C6
:100923003DB6021201228EB602120122D4B6021281
:100933000122FFB6021201225FB7021201228AB717
:1009430002120122BCB702120122FFB702120122D6
:1009530029B8021201224EB802120122E6B802128D
:100963000122C4A2041201227A9D041201224DD154
:100973000212012230D202120122ABD20212012250
:10098300E6D20212012237D402120122C0D402128B
:100993000122D8D6021201226AD9021201221CDADC
:1009A300021201223BDB0212012294DB021201221A
:1009B3003DDC02120122CFCD0312012212CE03121B
:1009C300012296CE0312012269CF0312012240D2E3
:1009D3000312012202F403120122AFF403120122D3
:1009E300E3F403120122F9F403120122ECF50312DA
:1009F30001223EF60312012275F603120122B4F618
:100A0300031201220EF7031201223BF70312012204
:100A130077F703120122C9F7031201220AF803121E
:100A230001223BF803120122B0970412012213980A
:100A330004120122B09804120122DE98041201224A
:100A4300FF98041201223A99041201225A990412BE
:100A53000122D6DC0312012262DD0312012221DE10
:100A63000312012239DF0312012253E1031201228F
:100A7300CE8903120122F38903120122C78A0312CA
:100A83000122348B031201228A8B03120122268C4A
:100A9300031201225A8D03120122358E0312012201
:100AA300948E03120122658F03120122F18F031228
:100AB3000122F48F031201223E9003120122B0900F
:100AC300031201225B91031201227B910312012283
:100AD300C39103120122DF910312012259920312DF
:100AE3000122679203120122F692031201225F93FD
:100AF30003120122D7EA031201225CEB0312012243
:100B03009EEB0312012282EC03120122EFEC03128B
:100B1300012233ED0312012277ED03120122A4ED2A
:100B230003120122CCED0312012204EE031201226F
:100B330042EE0312012269EE03120122E3EE0312D5
:100B430001222DEF031201223C2900120122092B5D
:100B530000120122F72C001201224B2D0012012258
:100B6300762D00120122242E00120122542E00128F
:100B73000122832E00120122962E00120122D72E6B
:100B830000120122192F00120122282F0012012224
:100B9300542F00120122A22F00120122D32F001280
:100BA300012203300012012231300012012263308E
:100BB3000012012286300012012225310012012287
:100BC3005C3100120122F63100120122553200126B
:100BD3000122E83200120122CA3300120122FE343C
:100BE300001201226B3500120122E33500120122AB
:100BF300D236001201227D38001201229C3D0012E0
:100C03000122F53D00120122CD3F00120122D740FF
:100C1300001201228E4200120122DB420012012245
:100C2300DD4200120122DF4200120122E4420012DF
:100C33000122E642001201228D43001201225B448D
:100C430000120122834400120122AE440012012249
:100C5300D944001201220645001201222B4500123D
:100C63000122A145001201221B4600120122634604
:100C7300001201228546001201228247001201223E
:100C8300424800120122734800120122D248001286
:100C93000122F24800120122FF4900120122284AD0
:100CA30000120122E34A001201226F4B00120122BB
:100CB3009A4B00120122E04B00120122194C001240
:100CC30001223B4C00120122684C00120122B64D56
:100CD30000120122C74D001201223F950412012286
:100CE3002A96041201226D9604120122BC96041264
:100CF30001220D97041201225E97041201228AA198
:100D0300011201220BA20112012238A201120122B7
:100D13007DA2011201228FA20112012290A30112CE
:100D23000122D5A30112012201A40112012232A43E
:100D330001120122AEA50112012230A601120122E5
:100D43008DA601120122E0A601120122CFA70112F2
:100D5300012264A9011201222EAA011201223EAA34
:100D63000112012268AA011201226BAA01120122B7
:100D73004EAB0112012239AC01120122E6AC011281
:100D8300012243AD011201229CAD0112012200AEEA
:100D930001120122A8AE0112012244AF0112012265
:100DA300D1AF0112012246B001120122A2B00112F9
:100DB300012201B10112012228B101120122EDB178
:100DC3000112012230B2011201221CB401120122CC
:100DD30065B40112012295B40112012208B5011272
:100DE30001228EB6011201223EB70112012263B71E
:100DF30001120122A2B701120122B7B70112012287
:100E0300FAB7011201226AB801120122B4B8011221
:100E13000122BEB9011201223FBA01120122008050
:100E2300031201224B800312012257800312012275
:100E33002B81031201224281031201227F810312BB
:100E43000122B08103120122E181031201221982DE
:100E5300031201226F8203120122858203120122EF
:100E6300C18203120122D48203120122FB820312E4
:100E730001222F83031201225584031201229F852D
:100E8300031201229B8603120122B187031201225E
:100E9300F9FF02120122A2C80312012250CC03124D
:100EA300012284CD0312012268C50212012221C846
:100EB3000212012227C802120122D8CA02120122F9
:100EC30032CD021201228AE10312012221E203122E
:100ED3000122DFE20312012209E3031201223FE5AB
:100EE300031201224AD10112012285D101120122EA
:100EF300D9DB0112012245DD0112012242DE01127A
:100F03000122C7E101120122BCE20112012208E31E
:100F13000112012222E30112012263E301120122E1
:100F23006CE3011201221EE401120122EEE401121C
:100F3300012235E5011201229BE5011201220DE692
:100F430001120122BAFC0312012297FD03120122AE
:100F5300DBFD0312012215FE03120122ADFE031273
:100F630001221CFF0312012225FF0312012231FF7C
:100F7300031201224BFF0312012275FF0312012208
:100F8300A5FF03120122ADBB03120122BABB031258
:100F93000122D4BB0312012207BC0312012245BC68
:100FA30003120122AABC03120122BFBC03120122B5
:100FB300D6BC03120122E4BC03120122F3BC0312C8
:100FC300012208BD031201221DBD0312012228BD07
:100FD3000312012234BD0312012241BD0312012277
:100FE30050BD031201225BBD0312012280BD031217
:100FF300012285BD031201221CBE0312012284BEFD
:101003000312012299BE03120122AEBE0312012272
:10101300C8BE03120122E5BE0312012202BF03125E
:1010230001220DBF03120122B9BF031201229AC08C
:1010330003120122B6C003120122CDC00312012202
:10104300D8C003120122EDC00312012201C1031211
:10105300012262C10312012268C1031201226EC17F
:101063000312012274C10312012288C10312012257
:10107300AFC103120122EAC10312012203C2031208
:10108300012245C20312012278C20312012290E712
:1010930002120122B2E7021201227AE802120122AD
:1010A30034EB021201224AEC021201226BED02120E
:1010B300012245EE02120122F4EE02120122369EB3
:1010C30002120122CD9E02120122659F0212012209
:1010D30055A0021201228CA0021201229FA002122B
:1010E30001220DA102120122A8A202120122CFA203
:1010F3000212012271A302120122A6A302120122EB
:10110300B7A30212012230A40212012251A4021237
:10111300012269A402120122C1A502120122CAA757
:10112300021201221AAA021201221DAB021201228B
:101133006CAB02120122A48F02120122A1900212AF
:1011430001228C9102120122969102120122B8917E
:1011530002120122C49102120122169302120122E9
:10116300459302120122759402120122B7940212CE
:101173000122E39502120122B996021201220B9772
:10118300021201226A9702120122A197021201227E
:10119300DC9702120122779B02120122909B02121A
:1011A3000122129C02120122209C02120122759C30
:1011B30002120122839C02120122F09C02120122DC
:1011C300629D02120122A89D021201226899041253
:1011D30001228D9904120122FE99041201221B9D02
:1011E30003120122249D031201222D9D03120122C9
:1011F3005E9E031201227DA003120122B3A00312FB
:101203000122EDA00312012223A1031201225DA1F9
:101213000312012291A103120122BDA10312012293
:1012230006A20312012240A20312012288A2031282
:101233000122DEA20312012213A3031201226EA3D1
:1012430003120122A8A303120122F9A3031201220C
:101253002FA40312012269A4031201228CA40312F6
:1012630001220EB90212012241B90212012284B9EC
:10127300021201228FB9021201229AB9021201222B
:10128300A5B9021201220FBD02120122EEBD021204
:10129300012267BE02120122DEBE02120122EBBE50
:1012A30002120122F8BE0212012202BF021201221F
:1012B3000CBF0212012216BF0212012223BF021227
:1012C300012233BF0212012279BF021201229DBF04
:1012D30002120122ADBF02120122BABF0212012281
:1012E300C4BF02120122CEBF02120122D8BF0212D2
:1012F3000122E5BF02120122EFBF02120122F9BF50
:101303000212012203C0021201220DC002120122A5
:1013130073C00212012280C0021201222FC10212E5
:10132300012239C10212012243C1021201224DC11D
:10133300021201226AC10212012287C10212012292
:10134300FEC10212012208C20212012215C20212B8
:10135300012230C20212012252C2021201225BC2D6
:1013630002120122A1C202120122AAC20212012206
:10137300C1C202120122D9C202120122E2C2021226
:1013830001227AC30212012292C302120122A2C3D2
:1013930002120122B2C302120122BCC302120122B1
:1013A300CCC302120122DCC302120122FBC30212CC
:1013B300012208C40212012215C40212012225C40B
:1013C3000212012232C4021201224FC4021201226C
:1013D3005FC4021201226FC4021201227FC40212EF
:1013E3000122B0C402120122BAC402120122C7C4EC
:1013F30002120122ECC402120122F9C402120122D8
:1014030009C50212012213C50212012220C50212CC
:1014130001222AC5021201223AC50212012244C541
:10142300021201224EC5021201225EC502120122DE
:101433005CB403120122A4B40312012268B503129F
:101443000122EAB5031201223CB6031201224FB670
:101453000312012291B6031201222CB703120122B7
:10146300ABB7031201222FB90312012248B90312A9
:10147300012280BA03120122ECBA031201225ABBE1
:10148300031201229EA10412012280830112012270
:10149300B2860112012299880112012214890112D4
:1014A3000122D289011201227E8A01120122218B9B
:1014B30001120122B98B01120122E88B01120122D0
:1014C300EB8F011201227D9001120122B9910112C9
:1014D3000122239201120122D792011201228D953A
:1014E30001120122C7950112012231960112012234
:1014F3008E9601120122EB960112012248970112E6
:101503000122339801120122799801120122C49811
:1015130001120122E798011201222E9A01120122DF
:10152300429A01120122B19B01120122F09B011286
:101533000122309C01120122839C01120122A49CEE
:1015430001120122E29C01120122089F01120122D1
:10155300A39F0112012215A00112012256A101121B
:101563000122FD8F04120122A39004120122909103
:1015730004120122CF910412012239920412012292
:10158300D3FF031201226D8A04120122388D041243
:101593000122DFFF0112012241A00412012251A006
:1015A3000412012268A004120122E4A00412012201
:1015B300688704120122108804120122528A04123D
:1015C3000122FC7F00120122E7FF021201228EF9A1
:1015D300011201228BFB0112012211FC01120122D3
:1015E30017FD01120122DBFD0112012258FE011237
:1015F3000122C3FE01120122C6FE01120122D4FE02
:1016030001120122F3FE011201221EFF0112012227
:1016130049FF0112012257FF0112012271FF01123A
:101623000122008002120122538002120122D9807A
:1016330002120122C4810212012229820212012212
:10164300AF82021201225E8502120122A08A0212D7
:101653000122F08B021201222A8D02120122848FB1
:1016630002120122948F02120122C3AC031201223F
:10167300E2AD0312012225B10312012259B1031273
:101683000122EEB30312012229B4031201224BB447
:101693000312012259B403120122739F041201227F
:1016A300EC9F041201220BA0041201222AA00412AF
:1016B30001223AA004120122589C04120122899C9F
:1016C30004120122B39C04120122119D041201226F
:1016D3001AA5031201222FA5031201228BA50312BF
:1016E3000122F6A5031201223EA603120122B0A68F
:1016F30003120122D9A603120122E7A60312012233
:1017030049A70312012287A703120122A2A70312EA
:101713000122BDA70312012258A80312012201A925
:101723000312012284A903120122BDA9031201227B
:1017330048AA031201229FAA03120122FDAA03123F
:1017430001220FAB0312012235AB031201223EAB80
:10175300031201228FAC03120122D67D0012012253
:101763003D7E00120122FA7E00120122787F0012D0
:1017730001226DEF03120122A0EF03120122D2F026
:101783000312012216F103120122DBF103120122DB
:10179300B7F2031201221E9B04120122FC9B0412C6
:1017A3000122A79204120122EC9204120122329325
:1017B30004120122FB9404120122F2A0041201225A
:1017C30034A2041201224FA2041201225FA20412C6
:1017D3000122E8F102120122C4F2021201220BF3E8
:1017E3000212012248F302120122B6F3021201226D
:1017F30010F40212012280F40212012250F50212A7
:1018030001223FF602120122B6F60212012252F819
:1018130002120122DFF80212012252F902120122FE
:10182300CEF902120122E5F9021201220AFB021289
:10183300012264FB02120122FAC2031201221AC31B
:101843000312012220C4031201226CC403120122D9
:101853008CC403120122DFC4031201224CC50312FC
:10186300012292C503120122F6C503120122FCD7FD
:101873000312012214D80312012269D80312012290
:101883006CD803120122A9D803120122B2DA03127F
:10189300012201DB031201227ADB03120122C9DBDD
:1018A3000312012267DC03120122D07F00120122FE
:1018B300C9FF02E066701008A3E066700A08A3E09F
:1018C30066700408A3E06622C3E7960809E7960852
:1018D30009E7960809E79622C3E09608A3E096086D
:1018E300A3E09608A3E09622C008C3E096F5080893
:1018F300A3E096420808A3E096420808A3E09645B1
:10190300087001D3D00822080808EAC0E0EBC0E061
:1019130086F0E7A4FA180986F0E7A42AFA180986DC
:10192300F0E7A42AFA180986F0E7A42AFA1986F040
:10193300E7A4FBE5F02AFA190886F0E7A42BFBE5F8
:10194300F03AFA190886F0E7A42BFBE5F03AFA1807
:10195300180986F0E7A4C5F02BFBE43AFA1908E767
:10196300C5F0C6A426F6E5F03BFBE43AFA1886F088
:10197300E7A4F6E5F00826F6E43B08F6E43A08F6B1
:10198300D0E0FBD0E0FA22E4CFC0E0E4CEC0E0E454
:10199300CDC0E0E4CCC0E075F020E626F608E633DF
:1019A300F608E633F608E633F6181818EC33FCEDC0
:1019B30033FDEE33FEEF33FFC3EC9709ED9709EEEA
:1019C3009709EF97191919400FFFEC97FC09ED9749
:1019D300FD09EE97FE191906D5F0BFECF709EDF7EF
:1019E30009EEF709EFF7191919D0E0FCD0E0FDD0A3
:1019F300E0FED0E0FF226016080808C6C313C6182D
:101A0300C613C618C613C618C613C6D5E0EA227095
:101A130009080808226016181818C6C333C608C672
:101A230033C608C633C608C633C6D5E0EA22E6275E
:101A3300F60809E637F60809E637F60809E637F641
:101A430022E026F608A3E036F608A3E036F608A35C
:101A5300E036F622E026F008A3E036F008A3E036ED
:101A6300F008A3E036F022C3E697F60809E697F6F6
:101A73000809E697F60809E697F622C3E096F00808
:101A8300A3E096F008A3E096F008A3E096F022E620
:101A930057F60809E657F60809E657F60809E65720
:101AA300F622E056F608A3E056F608A3E056F60839
:101AB300A3E056F622E056F008A3E056F008A3E0B0
:101AC30056F008A3E056F022E046F608A3E046F6F7
:101AD30008A3E046F608A3E046F622E066F608A36C
:101AE300E066F608A3E066F608A3E066F622E0F6F1
:101AF30008A3E0F608A3E0F608A3E0F622E6F00860
:101B0300A3E6F008A3E6F008A3E6F022E0FAA3E0D8
:101B1300FBA3E0FCA3E0FD22EAF0A3EBF0A3ECF0CF
:101B2300A3EDF022E0F8A3E0F9A3E0FAA3E0FB229F
:101B3300E8F0A3E9F0A3EAF0A3EBF022CAC0E0E6E1
:101B4300F0A308DAFAD0E0FA22CAC0E0E0A3C58223
:101B5300CCC582C583CDC583F0A3C582CCC582C560
:101B630083CDC583DAE6D0E0CA22C3E498F8E499CA
:101B7300F9121BAE8026C3E49AFAE49BFBE920E743
:101B8300E9121BAEE498F8E499F922C3E498F8E467
:101B930099F9121BAEE498F8E499F9C3E49AFAE4CC
:101BA3009BFB22EB20E7CFE920E7E0B90010BB0065
:101BB30008E88AF084F8AAF022E4FBC8FA22EB7062
:101BC300227B10C833C8C933C9335007C39AC3DB58
:101BD300F280069A50012ADBEAC833F4C8C933F409
:101BE300C9FA2275F008E4C833C8C933C933C99A9E
:101BF300C99B5004C92AC93BD5F0ECFBC833F4C8D0
:101C0300E4C9FA22600D08C6A2E713C618C613C6B4
:101C1300D5E0F322600C08C6C313C618C613C6D595
:101C2300E0F422700422600D18C6C333C608C6331D
:101C3300C6D5E0F41822251810AF08F518400C1586
:101C4300198008F51840021519D2AF2200C0D0251B
:101C53001810AF08F518500C05198008F518500234
:101C63000519D2AFD0D0222518F58210AF08F51888
:101C7300400C15198008F51840021519D2AF8519C3
:101C830083222518F582E43519F583222518F8E413
:101C93003519F9222518FAE43519FB222518FCE435
:101CA3003519FD22E4732518C582C0E0E51934FF18
:101CB300C583C0E0E518C3958224F810AF08858377
:101CC300198582188008858319858218D2AFCEF0D2
:101CD300A3E520F0A37808E608F0A3DEFAEFF0A36B
:101CE300E58124FAF8E608F0A3E608F0A3E608F095
:101CF300A30808E608F0A3E608F0A315811581D030
:101D0300E0FED0E0F8158115811581E8C0E0EEC052
:101D1300E0222518C582C0E0E51934FFC583C0E081
:101D2300E518C3958224F910AF08858319858218B5
:101D33008008858319858218D2AFCEF0A3E520F001
:101D4300A37808E608F0A3DEFAEFF0A3E58124FB0D
:101D5300F8E608F0A3E608F0A30808E608F0A3E60F
:101D630008F0A315811581D0E0FED0E0F8158115A8
:101D730081E8C0E0EEC0E022851983851882E0A3E4
:101D8300FEE0A3F5207808E0A3F608DFFAE0A3FF5E
:101D9300E0A3C0E0E0A3C0E0E0A3C0E0E0A3C0E0B4
:101DA300E0A3C0E010AF08858218858319800885F9
:101DB3008218858319D2AFD083D08202011F85197F
:101DC30083851882E0A3FEE0A3F5207808E0A3F65C
:101DD30008DFFAE0A3FFE0A3C0E0E0A3C0E0E0A3D4
:101DE300C0E0E0A3C0E010AF0885821885831980A6
:101DF30008858218858319D2AFD083D08222C0D0C0
:101E03002518C582C0E0E51934FFC583C0E0E51895
:101E1300C3958224F310AF0885831985821880083F
:101E2300858319858218D2AFC8F0A3E9F0A3EAF03D
:101E3300A3EBF0A37908E709F0A3D8FAECF0A3ED3C
:101E4300F0A3EEF0A3EFF0A3D0E0F0A3D0E0F0A373
:101E5300D0E0F0A3E520F0A3E5F0F0A322851983F9
:101E6300851882E0C0E0A3E0F9A3E0FAA3E0FBA3B6
:101E73007808E0F608A3DFFAE0FCA3E0FDA3E0FEA8
:101E8300A3E0FFA3E0C0E0A3E0C0E0A3E0F5D0A39C
:101E9300E0F520A3E0A3F5F010AF08858319858250
:101EA300188008858319858218D2AFD082D083D059
:101EB300E0F8D0E03274048006740280027401C03A
:101EC300E0F404121C6AD0E0121B3F227404800465
:101ED30074028000CCC0E0EDC0E0E518C39CCCAD3B
:101EE3001950011D10AF068C188D1980068C188DA2
:101EF30019D2AF121B4CD0E0FDD0E0FC22D083D02E
:101F030082E9C0E0E493A3C386F0C5F095F0F90835
:101F1300E493A386F0C5F095F0700BE493A3C39903
:101F23004005E9048002A3E475F002A42582F5824A
:101F3300E5F03583F583D0E0F9E493A3C0E0E493BF
:101F4300C0E022D083D082ECC0E0EDC0E0E493A3F4
:101F5300FCE493A3FDED4C600D121F92EC24FFFCF7
:101F6300ED34FFFD80EFE493A3FCE493A3FDED4C7C
:101F7300600D121FD1EC24FFFCED34FFFD80EFD088
:101F8300E0FDD0E0FCE493A3C0E0E493C0E022C012
:101F9300E0C3E49396087401939618400FE49366A4
:101FA300700808740193661870007019A3A3C3E442
:101FB3009396087401939618A3A3400DD0E0D0E044
:101FC300D0E0021F82A3A3A3A3A3A3D0E022C0E077
:101FD300C0F088F0E4936670080874019366187083
:101FE30000A8F0A3A3700BD0F0D0E0D0E0D0E002C3
:101FF3001F82A3A3D0F0D0E02274F6121D15EAFECF
:10200300EBFF8C088D09EE2434F8E43FF9E8FCE992
:10201300FDEE24351222F1FAEE24371222F1F8856F
:1020230008F0A4C885F00A8509F0A4250AF9EA286E
:10203300F8E439F97A257B00121BAEEA8C828D8392
:10204300F0FA131313541FF8EE28F8E43FF9E824C9
:102053005DF582E439F583E0C0E074075AF8D0E017
:10206300B800028004C313D8FCA2E0EE5008243465
:10207300F582E43F801824361222F1F5F0EA84A8B1
:10208300F0EE28F8E43FF9E82438F582E439F583E3
:10209300E0F97F03021DC174F7121D15EAFEEBFF81
:1020A300EE24341222F1C0E0EE2435F582E43FF54C
:1020B30083D0E0F08E828F83A3A3A3A3A3A3A3C0A3
:1020C30082C0838E828F83A3A3A3A3A3122162D092
:1020D30083D082E0C398F508A3E099F509EE247F45
:1020E3001222F16401705DEE248012215C8E828FD6
:1020F30083A3A3A3A3A3A3A31224948E828F83A356
:10210300A3A3A3A3E0FAA3E0FBC3EA9CEB9D5010B7
:10211300C3EC98ED99402DC3EA98EB995026800EB5
:10212300C3EA98EB994007C3EC98ED9940167CBD40
:102133007D06EEFAEFFB120DB8EE247FF582E43F45
:10214300F583E4F0AC08AD09EEFAEFFB121FFCE9EE
:10215300F912285F7F02021DC1F582E43FF583E097
:10216300F8A3E0F92274EF121D15900369E06408E7
:102173006005E06407702A9061C8E06024900397CB
:10218300E0F4601DE0F875F00CA4C8AAF02AF97415
:102193009928FE740339FF8E828F83A3A3A3E07073
:1021A30003022276906060E0C0E0EE2468F582E4EA
:1021B3003FF583D0E0F0750CF9750D0675080075D1
:1021C3000900E5D914F50AE5D95403F50E60127434
:1021D30003650E6043E50A600AEE24671222F1707C
:1021E3000280759006F4E06401601F1222EE600421
:1021F3007A0480027A00E50AC39AFA95E0FB120B8F
:102203005A8A088B09EA450970051210588064122E
:1022130022EE70048A0C8B0DE50A6012850C828510
:102223000D83F50BE5D9F0A3150BE50B70F6122220
:10223300EE604474FC250AF50A780C121EBCAC0A45
:10224300A90EEEFAEFFB120E8A7402121C4FE9700C
:1022530026AA08AB09121760793D8E828F83A3A348
:10226300A3A3E0FA7B00120998EEFAEFFB120DE24A
:10227300120EEA7900806F7403650E6051850A10AF
:102283007511007810121EBCAC0CAD0DAA08AB0979
:10229300120E4E7402121C4FEE24681222F1648057
:1022A3007004747F8001E0F50C780C121EC0E50EFB
:1022B300F50C780C121EC0A90AAC08AD099003975F
:1022C300E0FA7B001209687402121C4F801390031A
:1022D30069E06408700BAC0CAD0DEEFAEFFB120E67
:1022E300BA12106479017F0A021DC1EE2482F582BD
:1022F300E43FF583E02274F2121D1574FC121C39BD
:10230300EAFEEBFF8909A2AFE433F508C2AF02236B
:10231300B5E0601B780C121EBCAC0BA90EEEFAEFF5
:10232300FB120E847402121C4F7404250BF50B74FC
:1023330001250BF5D9850ED9E50B6018F50A850C37
:1023430082850D83E0F5D9A385820C85830D150A5B
:10235300E50A70EA75E195EE2463F8E43FF97A0043
:102363007B00A2AFE433F50BC2AF122490EC4D60B7
:102373003288828983E0FAA3E0FB8A828B8312246A
:102383009488828983ECF0A3EDF08A828B83E4F056
:10239300A3F0122490EC4D700A88828983A3A3E4EE
:1023A300F0A3F0E50BA2E092AF1217609006C4E031
:1023B30004F0EE246312215CE8496064EE246312A6
:1023C30022F12402F8A3E03400F988828983E582AC
:1023D3002402F50CE43583F50DE0F50BA3E0F50ECF
:1023E300EE24621222F1640170369061D0E0F8129B
:1023F30022EE60047C0480027C007480C398FA950A
:10240300E0FBE50B2CF8E43400F9E82402F8500172
:1024130009C3EA98EB99A2D265D03340030223148F
:102423009006C4E0604D9006C5E0F89006C4E0C392
:1024330098500C74026509703A9006C6E060348EB9
:10244300828F83A3A3A3A3E0851882851983122413
:10245300867402121C85E81224869006C3E028F0D5
:102463007402121C9FAA18AB1979011209C89006AD
:10247300C4E4F0E508A2E092AF7404121C4F7F0796
:10248300021DC1F0A3E4F09006C4E0F8228882891B
:1024930083E0FCA3E0FD220000851A87851BC6228A
:1024A300C0E074EB121E01A2AFE433F508C2AF75AE
:1024B3009B00906182E0A2E05030E591A2E0502AB7
:1024C3007591FE7401651A7021122636120F7A1265
:1024D3002624121ECF12279B7404121C4FE9640199
:1024E30070057901120FAA122168906182E0A2E5BA
:1024F300505DE591A2E550577591DF900369E06463
:10250300076005E06408702F1226367401651A709F
:102513003E120F7A122624121ECF12279B74041226
:102523001C4FE9640170057901120FAA7901EEFAD3
:10253300EFFB1222F98018E0640D701390038BE017
:1025430004F064287002E4F07A00E0F9121082903B
:102553006182E0A2E640030225F9E591A2E6400389
:102563000225F97591BF900369E064057008120FA5
:1025730062120F6E8003120F68751A00120FC8E9FA
:1025830090036AF07900120FAA120D167A017B00EC
:10259300900368E0F9121730907803E064427056B4
:1025A3009006F8E014F0704EC2AF1225B000781D0B
:1025B300D0E0F618D0E0F6E59F5407F87005750DE6
:1025C300FF8003750D7FC4C0E0781CE6F50A08E6BA
:1025D300550DF50B740B780A121C17D0E0250AF879
:1025E300906270E0A2E740F8E8C333906272F09023
:1025F3006270E0D2E0F0906181E0A2E35009E5E986
:10260300A2E3500375E9F7A3E0A2E75009E591A21D
:10261300E7500375917FE508A2E092AF7F08021EA1
:10262300608E828F83E0F8A3E0C82416F582E43835
:10263300F58322900397E0F875F00CA4C8AAF02A5A
:10264300F9749928FE740339FF22C0E0C0D0C08218
:10265300C083906183E0A2E05009E5BFA2E050038C
:1026630075BFFEE0A2E15009E5BFA2E1500375BFCB
:10267300FDE0A2E25009E5BFA2E2500375BFFBE013
:10268300A2E35009E5BFA2E3500375BFF7E0A2E45C
:102693005009E5BFA2E4500375BFEFE0A2E550097E
:1026A300E5BFA2E5500375BFDFE0A2E65009E5BF31
:1026B300A2E6500375BFBFD083D082D0D0D0E03222
:1026C300C0E074F2121E01E5A7A2E6500FE5A1A235
:1026D300E6500953A7BF75A1BF122717E5A7A2E5C7
:1026E300500CE5A1A2E5500653A7DF75A1DFE5A7CE
:1026F300A2E15009E5A1A2E1500375A1FDE5A7A25E
:10270300E2500CE5A1A2E2500653A7FB75A1FB7FA3
:1027130001021E6074F7121D15751A01900369E01A
:1027230064067015120F0E8A828B83A3A3A3A3A33F
:10273300A3E0FAA3E0FB120F50A2AFE433FED2AF43
:1027430090036FE0640170187A207B00900368E0C7
:10275300F912185C7A207B00900368E0F9121736AF
:10276300906182E0D2E6F09006F5E0602185C61B19
:10277300801690036EE064017008E5C654F84405C2
:10278300F5C653BEFC12249C7401651A60E4EEA2E4
:10279300E092AF7F02021DC174F1121D158A088BEE
:1027A300098C0A8D0B9082E67808121AA5740F1211
:1027B3001C85780C121AF19082E6780C121AA5780F
:1027C30008790C1218CB90830A50107808790C12F0
:1027D3001A6A78081218EB4014800E780C790812E4
:1027E3001A6A780C1218EB50047901800279007F81
:1027F30008021DC174ED121D158A088B098C0A8D00
:102803000B9082E67808121AA57413121C85780CB3
:10281300121AF19082E6780C121AA5780C79081234
:1028230018CB40117808790C121A6AAA08AB09ACC4
:102833000AAD0B8022751000751100751200751317
:10284300017810790C121A6A78107908121A31AAD1
:1028530010AB11AC12AD137F0C021DC1C082C0833B
:10286300E9906000F0D083D08222C0E074F2121E9F
:1028730001A2AFE433FED2AFC2C0E5D1A2E4500659
:1028830075D10F12161CEEF8EEA2E092AF7F010293
:102893001E60C0E0C0D0E8C0E0E9C0E0A2AFE4330E
:1028A300F8D2AFC2C7E8F9E8A2E092AFD0E0F9D01E
:1028B300E0F8D0D0D0E032C0E0C0D0E8C0E0E9C05A
:1028C300E0EAC0E0C082C083A2AFE433FAD2AF90A3
:1028D3000F1CE0F8900F1DE068700B539AF7900FF0
:1028E3001E7401F0802CC2EA900F1CE0F8740128DA
:1028F300900F1CF07900749C28F582740E39F583CF
:10290300E0F5F9900F1CE0C394804006900F1C740F
:1029130000F0EAF8EAA2E092AFD083D082D0E0FAE6
:10292300D0E0F9D0E0F8D0D0D0E032C2AF0200005E
:1029330022FFFFFFFFFFFFFFFF74F4121CA9E990C2
:102943000368F0120F86907800E0C4540F540764B4
:10295300037004793F8002797F7508067509007852
:1029630008121EBC7C567D037AEA7B071215B074ED
:1029730002121C4F900356E0F47049A3E0F4704434
:10298300A3E0F4703FA3E0F4703AA3E0F47035A33E
:10299300E0F4703090780EE0900356F090780FE0FA
:1029A300900357F0907810E0900358F0907811E07E
:1029B300900359F0907812E090035AF0907813E066
:1029C30090035BF090035C122AF712475190038641
:1029D3007406F0A3740D1235587441F0A37401F01A
:1029E3009006CA122AF79006C9E4F09006D00412A2
:1029F3003558122AE5E4F0A304F0A3123558123532
:102A030056F09006E1122AF79006E0E4F09006E70C
:102A130004F0A3E4122AE5123556F0A37405F090EE
:102A230006F174FFF0A3E4F09006F3F09006F504CA
:102A3300F09006F67490F0A37401F0120D2E120BB1
:102A430060120F4479017AF87B06120E2A9006F879
:102A5300E075F01484E5F004F0790C7A197B071221
:102A63000E2A120E487A00900368E0F91217CC90F0
:102A73007803E0644270569006F8E014F0704EC29A
:102A8300AF122A8700781DD0E0F618D0E0F6E59F54
:102A93005407F870057509FF800375097FC4C0E00A
:102AA300781CE6F50808E65509F509740B78081251
:102AB3001C17D0E02508F8906270E0A2E740F8E820
:102AC300C333906272F0906270E0D2E0F0900393AF
:102AD300E4F0A3F07A80FB900368E0F91217300268
:102AE3002F9D122AEE122AEEF0A322F0A37480F097
:102AF300A3740222122AFEF0A3F02274FFF0A3F0C3
:102B0300A3F0A3F0A32274F4121CA9EAFEEBFFEED8
:102B1300A2E0504090036AE0C39480E0500F25E0A8
:102B2300F8E433F9741228F582741E800EF425E05C
:102B3300F8E433F9742028F582741E39F583123DC5
:102B430023121CA77A00900368E0F91217CCEE64F5
:102B530001022CEB54087003022BF39006EFE0F80C
:102B630075F00CA4C8AAF02AF9749928FA740339E9
:102B7300FB7508007808121EC0EA2432F582E43B94
:102B8300F583123D0F74047808121C177808121E7F
:102B9300BCEA2430F582E43BF583121ED3EA242EEB
:102BA300F582E43BF583E0F508A3E0C313F509E5FB
:102BB3000813F5087808121EBCEA2405F508EB345F
:102BC30001F5097808121EBCEA240BF582EB124DBD
:102BD3008FFD7C008A828B83A3A3A3A3E0FA7B00EF
:102BE30079001209927409121C4FEE6408022CEB4F
:102BF300EE541060377508007808121EC0E4F5091A
:102C03007808121EBC7808121EBC7808121EBC7805
:102C130008121EBC7D007C007A007B007902120939
:102C2300927409121C4FEE6410022CEBEE54806078
:102C3300369006F6123877E849602679001217C6EF
:102C43009006F6123D0FE4F50AF50B7808121EB84C
:102C53007A007B01900368E0F91218507404121C87
:102C63004FEE6480022CEBEF5401600C79011217D4
:102C7300C6EEFAEF64018072EF5402600AC2AF75C8
:102C8300C9AB75C95B80FEEF5404600A12292EEEAE
:102C9300FAEF6404805490036FE06401704FEE54C4
:102CA30020604A900369E024FB600924FE601B1442
:102CB300601880319006D8E0FA7900120BF0900684
:102CC300D8E0FA7901120BF0801B793F900397E06B
:102CD300FA75F00CA4CAA8F028FB74992AFA7403B5
:102CE3003BFB120DE8EE6420FAEFFB80047A007BD5
:102CF30000022F9D74F6121CA9EA540F6004780198
:102D030080027800E8F98A088B0974047808121C99
:102D130017E50829F50875090074047808121C26BC
:102D2300E5082408FAE43509FB12175A8A088B09C7
:102D3300A808A909E8496009E82404FAE439FB80F2
:102D4300047A007B00022FCE74F6121CA9EA240534
:102D5300FA50010B12175A8A088B09A808A909E827
:102D6300496009E82405FAE439FB80047A007B0012
:102D7300022FCEC082C083C2AF120F68E5E170FCA0
:102D830075E101120D0A75E1F1120F92120CFE7931
:102D93000712103A79011210407902120FB0120F84
:102DA300E612101C790012102E790112102E908356
:102DB3005A121B0F120FA49006D1E4F09006E8F00C
:102DC300120DD0120EE4120DF47900121046900683
:102DD300BD122AFE741FF0906012E4F0A3F090601D
:102DE30063F0751A00900369F09006C2F09006C371
:102DF300740CF09006C4E4F09006C504F09006C687
:102E0300E4F090036BF0A3F090036EF090036F0473
:102E1300F090038504F09006F4E4F0D2AFF9023D9C
:102E2300EEC082C0839003561231EF9003571231E4
:102E3300CDF09003581231D89003591231DE90032C
:102E43005A1231E390035B1231CDA3A3A3A3023D36
:102E5300EBC082C0838A828B83E090035C1242873B
:102E6300E090035D122FFD90035E12473690035FDF
:102E730012474290036012473DE0900361023DEB2D
:102E8300C082C083120D3AE9F97005120FE679008A
:102E9300023DEE74F7121CA9EAFEEBFF8908120D3E
:102EA3003AE9F9702CE508600A74016508600A794B
:102EB30012801E7C00790080047C007901EEFAEF19
:102EC300FB120FF2E9F87403687004790780027942
:102ED300000240D274F7121CA9EAFEEBFF89081224
:102EE3000D3AE9F9702DE508600A74016508600878
:102EF3007912801F790080027901EEFAEFFB120F3D
:102F0300F8E9F874046860057405687004791F8033
:102F13000279000240D274F7121CA9EAFEEBFF12F9
:102F23000FEC0240CA74F6121CA9EA4B600EEC4D7A
:102F3300600A740A121C8512426470047912800FAD
:102F43007808121EBC120E3C7402121C4F790080CA
:102F53007A74F4121CA9EAFEEBFF8908900369E076
:102F630064096014E0640A600FE0640B600AE064C3
:102F73000C6005E0640D7004790C801E120F0E8B3B
:102F83000BEA450B700BA908EEFAEFFB120E2A8031
:102F93000990036BE04440F0790D7F04021D7B74BC
:102FA300F6121CA9EA4B6003E970047912801CEA4B
:102FB300FEEBFF8908120E24E98E828F83F0A3AE05
:102FC30082AF831508E50870EC79007F02021D7B50
:102FD300C082C0838A828B83E04470F0EA2403F8C2
:102FE300E43BF988828983E0D2E4122FFD44C0F0E8
:102FF30088828983E04403023DEB124287A3E022E7
:10300300C082C083787D7903888289831231EF88F7
:10301300828983A3A882A9838A828B83A3AA82AB92
:1030230083E864857003E9640370DD023DECC082CC
:10303300C0839003861231EF9003871238778C8216
:103043008D83123D909003891238778518828519F4
:1030530083E0FAA3E0F5838A82E8F0A3E9023DEB7B
:10306300C082C083E9F8740168700B9006F47401A0
:10307300F07900023DEEE870069006F4E480F17901
:103083001280F074F7121CA9C3EB940F503512424F
:10309300C35030124D956027EAF8EBF9E875F00C50
:1030A300A4C8ACF02CFC75F00CE9A42CF974992895
:1030B300FE740339FF8E828F83A3A3A3E070087984
:1030C30002803979128035EE24EC123CFF640170E2
:1030D3002EEE24F2F582E43FF583121ED3EE24F0A4
:1030E300F582E43FF583121ED3EE24EF123CFFFC7E
:1030F300790012099E7404121C4F79000240D2EE2B
:1031030024ED123CFF7017790CEEFAEFFB120DA6BB
:10311300EE24EDF582E43FF5837401F080DC793A27
:1031230080DA74F7121CA9ECFEEDFFEE4F6026EA7D
:103133006005146015801E120D28E9F88E828F83B6
:10314300F0748068700A793080088E828F83E4F08F
:1031530079000240D2791280F9C082C083E9F8C3B2
:10316300E4940F5060E8C39403505AE875F00CA43C
:10317300C8ACF0124DA870047902804B749928F8FA
:10318300740339F9E8245DF582E439F5831231EFEC
:10319300E8245EF582E439F5831231CDF0E8245F4B
:1031A300F582E439F5831231D8E82460F582E439F5
:1031B300F5831231DEE82461F582E439F5831231B7
:1031C300E3790080027912023DEE1231D122E08AC6
:1031D300828B83A3221231D1A3F0221231E9F02290
:1031E3001231E9A3F0221231D1A3A322E08A828B08
:1031F30083F02274F7121CA9900369E0640C701227
:1032030090618EE0F874806870368C828D83747F51
:10321300803AC3EB940F50241242C3501F124ACE7C
:10322300124DA970047902802675F00CEBA42EFBD5
:10323300740128F58274043BF58380C77912800FEB
:1032430090036DE0F9E8C3998C828D83F0790002D5
:1032530040D274F7121CA9E9FE74056E601E741344
:103263006E601974146E601474156E600F741A6EA8
:10327300600A74296E6005743B6E7037C3EB940F5C
:1032830050311242C3502C124D957004790280378D
:103293001242CBEA2469F582E43BF583E0640170D2
:1032A3001EEA246AF582E43BF583E0640270087940
:1032B3003A8014791280101232CD120DB2800612A8
:1032C30032CD120DA679000240D2EA24F6F582E44B
:1032D3003BF583EEF0EA241DF582E43BF583E4F04D
:1032E300A3F079022274F5121CA9EAFEEBFF890A06
:1032F300EC4D6014E9C3941C500E740B121C85E052
:10330300FA600A74016A600579120233B0C3EF945C
:103313000F502DC3EE9403EF940050241233B512D3
:103323004DA970047902801A1233B5F9749928F5FE
:1033330008740339F5099006C3E070087907806DB6
:1033430079128069EC24FEFCED34FFFD8C828D83C1
:10335300E50AF0EA7004740280027401A3F0EC241D
:10336300FEFCED34FFFDE5082463FAE43509FB12A6
:103373000E12A9A8C2AF9006C3E014F0E9A2E7E4D5
:1033830033F8E9A2E792AF900369E064086005E0CF
:1033930064077017900397E06E7001EF700D79006A
:1033A300AA08AB091222F99061D0E079007F0302E9
:1033B3001D7BEEF8EFF9E875F00CA4C8ABF02BFB1E
:1033C30075F00CE9A42B2274F5121CA9E9FE8A09F5
:1033D3008B0AC3942840030234FAEAC394264003B9
:1033E3000234FAEB602D7401650A60277402650AE2
:1033F30060217403650A601B7404650A6015740513
:10340300650A600F7406650A60097407650A60033C
:103413000234FA900369E0600579210234AA120F9D
:1034230068120D1075E1F17A01790112106A908228
:10343300FA121B0F120FDA7A00EEF91210827900DA
:1034430012104C900385E0F9120D2274022509F540
:10345300D9850AD98509D9E50A601814604C146026
:103463005A14602014606014606914607214607BE5
:103473000234FAE509600D758285758381FFE0F5F5
:10348300D9A3DFFA75E195EE90038BF0E509A3F07C
:10349300E50AA312355E74091246101210347A003D
:1034A3007B00120F5079000233B0E50960D6F508AE
:1034B30075D90F1508E50860CB80F5E50960C5FDF2
:1034C30075D955DDFB80BDE50960B9FC75D9FFDC15
:1034D300FB80B1E50960ADFB75D900DBFB80A5E599
:1034E3000960A1FA75D9F0DAFB8099E5096095F8CE
:1034F30075D9AAD8FB808D791280AC74F7121CA9F8
:10350300E9FEC39428400479128045900369E06082
:10351300047921803B120F68120D1075E1F17A01D5
:1035230079001210709082FA121B0F120FDA7A00D0
:10353300EEF9121082790012104CEE90038B1235C3
:103543005874FF12355E740AF0791812103479003A
:103553000240D27425F0A3E4F0A322F0A3E4122BDB
:10356300007480F09003692274F6121CA990036919
:10357300E064096009E0640A60047921805FE5E1A1
:1035830070FC75E101E0640970147A8E7B031210FC
:1035930076790512104C79007A007B00802DE06467
:1035A3000A702B7508927509037808121EBC7C906B
:1035B3007D037A8E7B0312107C7402121C4F7905F3
:1035C30012104C790190038E124AC81209B0120DE1
:1035D3000A120CFE75E1F1900369E4F0F9022FCEB3
:1035E30074F7121CA9E9FF600574016F7037740941
:1035F300121C85E0FE600574016E7029EA24FCF854
:10360300EB1236CE501FEC24FCF8ED1236CE5015DB
:10361300C3EA9CEB9D400E740A121C85E0F8600A15
:10362300740168600579120236CB9006D1E064011B
:103633007005790C0236CBEFA3F0E89006D7F0EED5
:103643009006C9702FE4F0900356E09006CAF090FC
:103653000357E09006CBF0900358E09006CCF0902F
:103663000359E09006CDF090035AE09006CEF09017
:10367300035B802E7401F090035CE09006CAF09027
:10368300035DE09006CBF090035EE09006CCF090F3
:10369300035FE09006CDF0900360E09006CEF090DB
:1036A3000361E09006CFF09006D3EAF0A3EBF0A31A
:1036B300ECF0A3EDF0E87004790080077401687002
:1036C300057901120FFE79000240D2123D65227482
:1036D300F0121CA9E9FEEAFF900369E06409700394
:1036E3000237DAE0640A70030237DAE0640B70032E
:1036F3000237DAE0640C70030237DAE0640D70031A
:103703000237DA9006D2E060076401600302387280
:103713009006C9E06007640160030238729006D323
:10372300123D5B4003023872A3123D5B4003023833
:10373300729006D3C0829006D5123877758306D06F
:1037430082C3E098A3E0995003023872EF600874D3
:10375300016F6003023872EE6077146003023872FF
:103763009006D1E06401606F7902120F029006C7E0
:10377300EAF0A3EBF09006D17401F09006D0F0EFDD
:103783009006D8F0900369E07042120D46120F7A4A
:103793008A0C8B0D8C0E8D0F9082EA780C121A44D2
:1037A3009082E6780C121AA59006C7123D1B121BD5
:1037B300009006C7123D499006D5123D3C121A31BE
:1037C3009006C7123D2C121B00120EEA7900024428
:1037D300569006D1E07004792180F3A2AFE433F56B
:1037E30008C2AF7AC77B06120F089006D1E4F01225
:1037F3000F1AE97046120F68906182E0C2E6F0E5A5
:10380300E170FC75E1017591BF790112104075E11A
:10381300F190036FE0640170187A207B00900368D5
:10382300E0F912185C7A207B00900368E0F9121724
:10383300367A00900368E0F91217CCE508A2E0920B
:10384300AF9006D7E06401700612101C0237CFA3B5
:10385300E0640160030237CF9006D7E060030237CC
:10386300CF120FE612101C79011210280237CF79FC
:10387300120237D1E0F8A3E0F92274E8121CA9740C
:10388300FB121C397403121C85EAF0A3EBF07401DC
:10389300121C85ECF0A3EDF0E9851882851983F0FD
:1038A3009006E8E0640160267904120F14E96401CC
:1038B300601C900369E064096014E0640A600FE02F
:1038C300640B600AE0640C6005E0640D7005792107
:1038D300023CEC7403121C85123D5B4003023AE583
:1038E3007401121C85123D5B4003023AE574031216
:1038F3001C85C082C0837401121C85123877D08363
:10390300D082C3E098A3E0995003023AE5741E12F3
:103913001C85123D0F851882851983E060096401B7
:103923006003023AE58009E50845097003023AE5B8
:10393300741D121C85E0600764016003023AE5749C
:1039430020121C85E0600764016003023AE5742BD2
:10395300121C85C082C0837429121C85123877D04B
:1039630083D082C3E098A3E0995003023AE574211F
:10397300121C85E024FAF8A3E0123CF64003023A55
:10398300E57423121C85E0FEA3E0FFEE24FAF8EFB2
:10399300123CF64003023AE57421121C8512387773
:1039A300C3EE98EF995003023AE57425121C85C3C0
:1039B300E094F4A3E094014003023AE57427121C57
:1039C3008512425A24F6F8E50B12482D9477E994B0
:1039D3000C4003023AE5850A0C850B0D7403780C41
:1039E300121C26F50EF50F7425121C85E02401F533
:1039F30014A3E03400F515E4F516F517EEF8EFF926
:103A0300E82EF8E933F988108911E4F512F51378F3
:103A130014791012190A780C79141218CB50421227
:103A23000DEEE964017005793A023CEC7900EEFC95
:103A3300EFFD7421121C85124AC8120DDC8A0C8B0F
:103A43000D74FF650C700474FF650D7005793B02FE
:103A53003CEC851882851983E07008E508450970F8
:103A630002807F120DC48A0E8B0FAE0EAF0FEE4F86
:103A730070057909023CEC8E828F83A3A3A3A3E094
:103A83009006EFF07403121C851238779006E91242
:103A93003D907401121C851238779006EB123D900D
:103AA300851882851983E09006EEF0EE245DF8E434
:103AB3003FF97ABD7B0612426C64C27003EB640665
:103AC30070F4EE245DFCE43FFDEEFAEFFB120DB85B
:103AD300EE2436123CFFC39402500CEEFAEFFB12B5
:103AE3000DCA7912023CEC850882850983E0C0E0A7
:103AF300EE2405123D07D0E0123D81E0C0E0EE2444
:103B030006123D07D0E0123D78E0C0E0EE24071234
:103B13003D07D0E0123D78A3E0C0E0EE2408123D5B
:103B230007D0E0123D96E0C0E0EE2409123D07D035
:103B3300E0123D96A3E0C0E0EE240A123D07D0E078
:103B4300F07420121C85E09006E0F07420121C85AE
:103B5300E0702D900356E09006E1F0900357E0905B
:103B630006E2F0900358E09006E3F0900359E090EA
:103B730006E4F090035AE09006E5F090035B802B97
:103B830090035CE09006E1F090035DE09006E2F0C4
:103B930090035EE09006E3F090035FE09006E4F0AC
:103BA300900360E09006E5F0900361E09006E6F094
:103BB300741D121C85E0C0E0EE240B123D07D0E01B
:103BC300F0120DFAEAF8EBF9ECFAEDFBEE2426F528
:103BD30082E43FF583121B33120CDAEE2422F582C2
:103BE300E43FF583121B1BEE242EF582E43FF5839D
:103BF300E50CF0A3E50DF0EE2432F582E43FF58306
:103C0300E50AF0A3E50BF07425121C85123877EE54
:103C13002430123D8A9006F0E0C0E0EE242AF582BB
:103C2300E43FF583D0E0F0EE242BF582E43FF58307
:103C33007402F0120E24E975F00C84E5F02405C03B
:103C4300E0EE2437F582E43FF583D0E0F09006ED13
:103C53007425F0900396E0C3940240057901120F96
:103C6300AA7904120F029006DEEAF0A3EBF09006A5
:103C7300E87401123D6E241AF582E438F583745E0C
:103C8300F0A3740D123D6E2414F582E438F58374A9
:103C930017F0900369E0704F120F7A8A0C8B0D8C2A
:103CA3000E8D0F9082E2780C121A449082E6780C03
:103CB300121AA59006DE123D1B121B009006DE129F
:103CC3003D499006EB123D3C121A319006DE123D3F
:103CD3002C121B008E828F83A3A3A3A3E0F9120DE2
:103CE3004C120D52120EEA79007405121C4F7F100C
:103CF300021D7B124831947BE9940C22F582E43F48
:103D0300F583E022F582EF3401F58322123D13227D
:103D1300E0F508A3E0F50922123D23A3A3780C22C2
:103D2300E0F8A3E0F583888222E0F8A3E0C8240E3C
:103D3300F582E438F583780C22123D13E4F50AF595
:103D43000B780C790822E0F8A3E0C82406F582E496
:103D530038F583E4F0A3F022E024FCF8A3E0123D5D
:103D6300652212483194FDE9943F22F09006DEE08B
:103D7300F8A3E0C822123D7C22123D81A322F085E4
:103D83000882850983A322F582E43FF583E8F0A343
:103D9300E9F022123D7CA3A322C082C0839006E8EF
:103DA300E060087904120F14E97004790C803790ED
:103DB30006E8E4F0120F1AE9702A90036FE0640139
:103DC30070187A207B00900368E0F912185C7A205F
:103DD3007B00900368E0F91217367A00900368E0DD
:103DE300F91217CC79008003F07900D083D08202D6
:103DF300011F74E8121CA9EAF8EBF9ECFAEDFB9049
:103E03000369E064086005790C023FC2EA24FAFC06
:103E1300EB34FFFDC3EC947BED940C4003023F4D68
:103E23007418121C85E0FCA3E0FDEC24FAFEED34CB
:103E3300FFFFC3EE947BEF940C4003023F4DC3ECB2
:103E43009AED9B5003023F4D741A121C85E0F51640
:103E5300A3E0F517C3E51694F4E5179401400302B4
:103E63003F4D741C121C85E0FEA3E0FFEE24F6F523
:103E730008EF34FFF509C3E5089477E509940C408E
:103E830003023F4DC3E9940F5079C3E89403E994C7
:103E93000050708808E875F00CA4C50885F00A2561
:103EA3000AF50A75F00CE9A4250AF509749C25089E
:103EB300F58274033509F583E0700479028046E8DE
:103EC30075F00CA4C885F0082508F50875F00CE911
:103ED300A42508F9749928F514740339F515E51424
:103EE300246E123FC5E0600AE514246A123FC5E060
:103EF300600CE5142473123FC5E06401700A793A3B
:103F0300023FC27912023FC28E088F0974037808F8
:103F1300121C26F50AF50BE5162401F510E43517F6
:103F2300F511E4F512F513ECF8EDF9E82CF8E933A3
:103F3300F9880C890DE4F50EF50F7810790C121938
:103F43000A780879101218CB40047912807179012C
:103F5300120DDC74FF6A700374FF6B7004793B808D
:103F63005EE5142476123FC57402F0E5142477123B
:103F73003FC5E4F0A3F0E5142430F582E4351512CF
:103F830040BEE5142474F582E43515123D8EE51424
:103F93002479123FC5EAF0A3EBF0E514247B123F2A
:103FA300C5E516F0A3E517F0E514247D123FC5EE31
:103FB300F0A3EFF07900AA14AB15120DA679000255
:103FC3003CF1F582E43515F5832274F7121CA9EA56
:103FD300FEEBFF900369E064086005790C0240BCC6
:103FE300EE4F60158E828F83A3A3A3A3E054E070EA
:103FF30008120DBEE96401600579120240BC750820
:10400300007899790388828983A3A3A3E06401706C
:104013002CE8246EF582E439F583E0600EE8246A27
:10402300F582E439F583E06401600EE8247FF582CC
:10403300E439F583E064017004793A807C0508E88B
:10404300240CF8E93401F9E508C3940340B77ABDB9
:104053007B06EE2405F8E43FF98E828F831231EF5D
:104063008E828F83A3AE82AF838A828B83A3AA823D
:10407300AB83E86E7002E96F70DF7508007E997F8D
:10408300038E828F83A3A3A3E064017019EE24300F
:10409300F582E43F1240BEEE2480123D8A7901EEA0
:1040A300FAEFFB120DA60508EE240CFEEF3401FF18
:1040B300E508C3940340CA79008014F583E024071C
:1040C300F8A3E03400F922E98E828F83F079007F30
:1040D30001021D7B74F3121CA9900369E06408605C
:1040E30005790C024241EC4D6016740D121C8512C9
:1040F300425A450B600A740F121C85124264700504
:104103007912024241C3EB940F504E1242C35049FD
:10411300124ACE124DA970047902803F75F00CEB60
:10412300A42EFB749928FE74033BFFEE24E3123C98
:10413300FF7017EE24E4F8E43FF97A7D7B03124223
:104143006C64857003EB640370F4EE24E4123CFFAB
:10415300A2E0400A79110242417912024241EE245F
:104163009BF8E43FF9EC2408FAE43DFB8C828D8351
:10417300E088828983124BD9AC82AD83888289839C
:10418300A3A882A983EA6C7002EB6D70DF850A82B3
:10419300850B83E0C0E0EE24A3F582E43FF583D0F2
:1041A300E0F0850A82850B83A3E0C0E0EE24A4F54A
:1041B30082E43FF583D0E0F07C00A808A909888257
:1041C3008983E0C0E0ECFAC3E49AFA95E0FBEE2AB7
:1041D300FAEF3BFBEA24D1F582E43BF583D0E0F030
:1041E3000C88828983A3A882A983ECC3941040CE50
:1041F300EE2493FAE43FFB120E30EE2487FAE43FF9
:10420300FB120E3690036BE04480F0EE2462124200
:104213005024D212425024D31242502482123CFF23
:104223006401700A1242467401F0790A800712424F
:1042330046E4F07903EEFAEFFB120DA679007F0551
:10424300021D7BEE24DCF582E43FF58322F582E454
:104253003FF583E4F0EE22E0F50AA3E0F50BE50A6F
:1042630022123D13E5084509228A828B83E0888266
:104273008983124287AA82AB8388828983A3A88217
:10428300A983EA22F08A828B83A322C082C083900F
:104293000369E064086004790C8022C3EB940F5037
:1042A3001A1242C35015124D9570047902800E798B
:1042B300081242CB120DA6790080027912023DEE5C
:1042C300C3EA9403EB94002275F00CEBA42CFB746B
:1042D3009928FA74033BFB2280028000790C0201C7
:1042E3001F80F974F0121CA9890AEAFEEBFF120F72
:1042F3000E8A088B09120F7A8A0C8B0D8C0E8D0F88
:104303008E828F837401F0E50A600A7401650A6086
:104313000479128072E5084509604D780C121EB8C5
:10432300850882850983A3A3121B0F12279B74049C
:10433300121C4FE9603990832EC082C083780C121F
:104343001EB8850882850983A3A3121B0F1227F7C2
:104353007404121C4F8A0C8B0D8C0E8D0FD083D0DE
:1043630082780C1218EB5007A90A120D1C8016E56F
:104373000A90036B7005E044018003E04402F08E71
:10438300828F83E4F0790002445674F0121CA989E9
:104393000AEAFEEBFF120F0E8A088B09120F7A8AC4
:1043A3000C8B0D8C0E8D0F8E828F837401F0E50ABA
:1043B30060117401650A600B7402650A6005791265
:1043C300024456E5084509604D780C121EB885086D
:1043D30082850983A3A3121B0F12279B7404121C4B
:1043E3004FE9603990832EC082C083780C121EB8C7
:1043F300850882850983A3A3121B0F1227F7740470
:10440300121C4F8A0C8B0D8C0E8D0FD083D08278AB
:104413000C1218EB5007A90A120D228034E50A602A
:104423000B14601014601514601A801F90036BE066
:104433004404801690036BE04408800E90036BE005
:104443004410800690036BE04420F08E828F83E457
:10445300F079007F08021D7BC082C083E9FA9006D1
:10446300C2E0F8EA600E14700E7401F0E068700B9D
:1044730079FF8009E480F4791280027900023DEE2D
:10448300C082C083E9F89006F5E07004790C800ED1
:10449300E8600E14701190036E7401F07900023D10
:1044A300EE90036EE480F4791280F3C082C083E956
:1044B300F8900369E0701AE8600D14701090036FB0
:1044C3007401F07900800C90036FE480F579128019
:1044D30002790C023DEE74F6121CA9EA4B600EEC55
:1044E3004D600A740A121C851242647004791280AA
:1044F3000F7808121EBC120E427402121C4F790070
:10450300022FCEC082C083EA4B7004791280168AD0
:10451300828B83E0A2E090037DE05004D2E080022E
:10452300C2E0F07900023DEE74F7121CA9E9FFEA3C
:10453300FEC394285008EF600974016F6004791278
:104543008059900369E060047921804F120F68124B
:104553000D1075E1F19082FA121B0F120FDA74013C
:104563006F70137A01EEF9121082790012104C90D9
:104573006190742480177A00EEF912108279071281
:10458300104C9061907404F09061E874FFF0900314
:1045930069740BF0790412103479000240D2C0829E
:1045A300C083900369E060047921805E120F681272
:1045B3000D1075E1F17A01790112106A9082FA12F5
:1045C3001B0F120FDA90038BE4F0FAF912108279C1
:1045D3000012104C75D92775D90075D925758285B8
:1045E300758381E0F5D9A3E58264AA7004E5836449
:1045F3008170F075E195900369740D1246101210E5
:10460300347A007B00120F507900023DEEF0906186
:1046130082E0D2E5F079192274F7121CA9E9FEC3EE
:104623009428400479128035900369E0600479216D
:10463300802B120F68120D1075E1F19082FA121B94
:104643000F120FDA7A00EEF9121082790012104C71
:10465300900369740CF0790312103479000240D28C
:10466300C082C083900369E0640B600EE0640C6059
:1046730009E0640D600479218005120B6079000262
:104683003DEEC082C083EA4B700579120247339036
:104693000369E06005790C0247338A828B83E0F477
:1046A3007060A3E0F4705B8A828B83A3A3E0F47051
:1046B300518A828B83A3A3A3E0F470468A828B83FF
:1046C300A3A3A3A3E0F4703A8A828B83A3A3A3A337
:1046D300A3E0F4702D900362E0900356F09003631F
:1046E300E0900357F0900364E0900358F090036563
:1046F300E0900359F0900366E090035AF09003674B
:1047030080271247518A828B83E090035612428797
:10471300E0900357122FFD90035812473690035928
:1047230012474290035A12473DE090035BF0790031
:10473300023DEE124287A3A3E022124747A32212AF
:104743004747E022F08A828B83A3A3A3A32290038B
:1047530056E0900362F0900357E0900363F09003F8
:1047630058E0900364F0900359E0900365F09003E0
:104773005AE0900366F090035BE0900367F022C079
:1047830082C083C3EA94F5EB940140057912024891
:1047930028900369E064086005E064077005790CFC
:1047A300024828C3EA9415EB940050079006F0746E
:1047B30007806FEA24EB12482B940AE99400500710
:1047C3009006F07406805BEA24E112482B9414E906
:1047D300940050079006F074058047EA24CD1248F0
:1047E3003750079006F074048038EA24B41248372F
:1047F30050079006F074038029EA249B12482B94F7
:1048030032E9940050079006F074028015EA246997
:1048130012482B9464E994009006F05004740180CC
:1048230001E4F07900023DEEF8EB1248312234FF47
:10483300F9C3E822F8EB1248319419E99400227481
:10484300F7121CA9E9FE906185E0F874016E7012FD
:10485300E8C3940F5007740128F9120D047900027C
:1048630040D2EE7007E860F574FF80EC791280EFB8
:1048730074F4121CA974FC121C39902934E493F4C7
:104883006004790C8041906185E0851882851983E5
:10489300F07808121AF190831A7808121ACB851847
:1048A300828519837808121B007508017509007841
:1048B30008121EBC7402121C9F7A4D7B0A1215B695
:1048C3007402121C4F79007404121C4F022F9DC0F6
:1048D30082C083E9F8600E7401686009740268603D
:1048E3000479128007E8900385F07900023DEE74A5
:1048F300F6121CA9E9FB74FF6B700C9006F174FFB0
:10490300F0A3E4F0F9804BEB600C146048147003DF
:104913000249B60249FAEAC3940840030249FAE598
:10492300AEC4540F54076A700353AE7F7508017504
:104933000900EA7808121C26E508F8F4F952F25245
:10494300F3E842FDE952ABEBF9EA9006F1123D912F
:104953007900022FCEEA601814601A14601C1460E8
:104963001E1460201460221460241460210249FA8A
:1049730090624380179062448012906245800D904C
:10498300624680089062478003906248E4F0E5AE97
:1049930054076A700353AEF7750801750900EA7886
:1049A30008121C26E508F8F4F952F4E842FEE9522D
:1049B3008D8094E5C6A2E7400E74036A6005740413
:1049C3006A7004790C808BEA600924FD600A146024
:1049D3000C802453F5FE800853F5F7800353F5EF5D
:1049E300750801750900EA7808121C26E508F842E3
:1049F300FFF452AC02494A7912024955C082C0837E
:104A0300C3EB940F501A1242C35015124D95700404
:104A13007902800E79161242CB120DE879008002DA
:104A23007912023DEE74F7121CA9E9FEC3EB940F51
:104A330050271242C35022124D9570047902806DA3
:104A430075F00CEBA42CFB749928F874033BF9EE76
:104A5300600B1460217912805479128050E824F895
:104A6300124ABC24FA124ABC24FC124ABC124AB3AE
:104A7300E4F0A3F08035E8124AB3121ED3E824FC15
:104A8300F582E439F583121ED3E824FAF582E4397A
:104A9300F583E0FCA3E0FDE824F8F582E439F5832F
:104AA300124AC81209567404121C4F79000240D2EC
:104AB30024FEF582E439F58322F582E439F583E4B3
:104AC300F0A3F0E822E0FAA3E0FB22EAF8EBF9E82E
:104AD30075F00CA4C8AEF02EFE75F00CE9A42E22DE
:104AE30074F0121CA9EAFEEBFF120F0E8A088B0961
:104AF300120F7A8A0C8B0D8C0E8D0F8E828F83741E
:104B030001F0E5084509604D780C121EB88508824E
:104B1300850983A3A3121B0F12279B7404121C4F36
:104B2300E9603790832EC082C083780C121EB8854B
:104B33000882850983A3A3121B0F1227F77404129B
:104B43001C4F8A088B098C0A8D0BD083D08278087E
:104B53001218EB5005120D34800D90036CE04401E4
:104B6300F08E828F83E4F07900024456C082C083C2
:104B7300E9F8900395E06004790C800EE8600E1468
:104B830070119006F57401F07900023DEE9006F580
:104B9300E480F4791280F374F7121CA9E960051418
:104BA300600F802E900393EAF0A3EBF079000240AC
:104BB300D2900393E08C828D83F0900394E08C82F7
:104BC3008D83A3124BD9A37450124BD9A3A374ABF7
:104BD30080D9791280D8F08C828D83A32274F71246
:104BE3001CA9E9600514601E8028908326121ECF3D
:104BF3007A007B02900368E0F91218507404121CC7
:104C03004F79000240D2908326121ECF7A007B0494
:104C130080E2791280EDC082C083E9600F147014C2
:104C2300906182E04421F07900023DEE906182E0E0
:104C330054DE80F2791280F1C082C083E9F86021EA
:104C4300C3940D501CEA60131470169006C67401C9
:104C5300F0E89006C5F07900023DEE9006C6E480C8
:104C6300EF791280F374F7121CA974FF121C39EA4E
:104C73004B60078A828B837403F0EC4D60099003C9
:104C830096E08C828D83F0740A121C85124AC8EA5E
:104C93004B7003024D797F007E00807B7401F0E04E
:104CA300C0E0EA2CF582E43BF583D0E0F0E824058C
:104CB300124D8CC0E0124D83D0E0F00FE8240612B1
:104CC3004D8CC0E0124D83D0E0F00FE82407124D65
:104CD3008CC0E0124D83D0E0F00FE82408124D8C15
:104CE300C0E0124D83D0E0F00FE82409124D8CC0D0
:104CF300E0124D83D0E0F00FE8240A124D8CC0E09F
:104D0300124D83D0E0F00FE8240B124D8CC0E0125B
:104D13004D83D0E0F00F0E900396E0F8EEC3985069
:104D230055EEF8C3E4940F50EDE8C3940350E7E85D
:104D330075F00CA4C8ACF0124DA860DA749928F889
:104D4300740339F9EFFCEA2CF582E43BF583EEF0CA
:104D530074012CFC74012CFF88828983E0FDA3E09D
:104D6300F5838D82E0648085188285198360030250
:104D73004C9FE4024CA179007401121C4F0240D2F3
:104D8300EA2FF582E43BF58322F582E93401F583CA
:104D9300E022EAF8EBF9E875F00CA4C8ACF02CFCBF
:104DA30075F00CE9A42CF9749C28F582740339F589
:104DB30083E022C082C083EA4B60069003961231DF
:104DC300EF023DEC74F6121CA97901120DDC8A087E
:104DD3008B0974FF6508700474FF65097004791208
:104DE30080027900022FCEC082C083E9901DEEF0CD
:104DF300D083D08202011F74F6121CA9E99002DC51
:104E0300F090033BE0F50875090074027808121C62
:104E130026AA08AB091217AE9002DD1257AD900215
:104E2300DD125B9A606F90033BE075F003A4FAAB6D
:104E3300F01217AE9002FA1257AD9002FA125B9A73
:104E4300700B9002DD125B6B1217B480489002FA6C
:104E5300126AFF7AFF7BFF1215627A0080198A08B3
:104E630075090074027808121C261265A774FF12D4
:104E73004FADE4F0A3F00A90033BE0F8EAC3984097
:104E8300DD79051207589002DCE0F91206447AE254
:104E93007B07120AFA02664A74F4121CA98A088B69
:104EA30009EB548060479002DCE0F91217188A0A74
:104EB3008B0BAE0AAF0BEE4F602A8E828F83E064BA
:104EC300B0701A12076AE960148E828F83A3A3A3BA
:104ED300A3E0F9EE2405FAE43FFB12073AEEFAEFFA
:104EE300FB121700AA08E5096480FB80047A007BA3
:104EF300000250FD74F2121CA974FB121C39EAFE65
:104F0300EBFFEE4F60457403121C85EEF0A3EFF048
:104F1300851882851983ECF0A3EDF07402121C85C9
:104F2300E9F0AA18AB1912063EE9F5087075741377
:104F3300121C85E0F50AA3E0F50BE50A450B606357
:104F43008E828F83125536EE4F700575080280539B
:104F53007A067B001217AE8A0C8B0DA80CA90DE8FC
:104F6300497005750813803B88828983E4124FAD2D
:104F7300EEF0A3EF1250C9E50AF0A3E50BF090029F
:104F8300E01250C29002E06017E0FCA3E08003EA65
:104F9300FCEBFD8C828D831250C270F38C828D8367
:104FA3001261C2A9087405026D7FF0A3126AE1A31E
:104FB3002274F2121CA98908890C750D00740378F8
:104FC3000C121C26850C0A850D0B9002DFF0900253
:104FD300DD125FCD1250C0602E1217B47900801D10
:104FE300890C750D007402780C121C269002DD12D8
:104FF30064668882F583A3A3E4F0A3F00990033BDE
:10500300E0F8E9C39840D990033BE0FA850AF0A49D
:10501300CAA8F0850BF0A428FB1217AE8A0C8B0DDF
:10502300AE0CAF0DEE4F70030250B690033BE0FCA5
:10503300850AF0A4CCA8F0850BF0A428FD79001212
:1050430016EE7C0080318D0C750D007403780C1204
:105053001C268A828B831250BB88828983E4F012D8
:1050630050C8A3A3F0A3F00DEDC3950840D8EE25D7
:105073000AFEEF350BFF0C90033BE0F8ECC39850AE
:10508300288C0C750D007402780C121C269002DD1E
:105093001250BBE82402500109FAE9FB8A828B8390
:1050A300EEF0A3EFF07D0080BFE5089002DFF0791A
:1050B3000080027913026D8212646AF922A3A3129B
:1050C3005B6FEA4B22A3126AE1A3A3A32274F41237
:1050D3001CA97900EAA2E0501F7508C175098278FE
:1050E30008121EBC79107C047D007AF07B1D120728
:1050F300527402121C4FE9F980007F04021D7BC029
:1051030082C0839002E0125B9A601C88828983A329
:10511300A3E06A7003A3E06B8882898370E8A3A38A
:10512300A3A3125B6B80047A007B00024DF374F23D
:10513300121CA974FD121C39EAFEEBFF8518828547
:105143001983E4F0A3F07402121C857401F0125B5E
:10515300977014120A4C1217AE9002E31257AD1255
:105163005B9770030252C31258ADEE2404F50AE4B0
:105173003FF50B850A82F583E024FE603C24FC6046
:105183007424FE607E24FE700302521324FE700317
:1051930002522024FE700302522D24FE7003025299
:1051A3003A24FE700302524724FC7003025268241F
:1051B300FE70030252800252BC120A4C9002E5EACE
:1051C300F0A3EB1252CF120290E960030252BC909B
:1051D30002E5121ED38E828F83A3A3A3A3A3126A15
:1051E300FF850882850983125B6B12072274021202
:1051F3001C4F0252BCAC18AD19EEFAEFFB1207704C
:1052030002528BAC18AD19EEFAEFFB1207768078D9
:10521300AC18AD19EEFAEFFB12077C806BAC18AD3E
:1052230019EEFAEFFB120782805EAC18AD19EEFAA5
:10523300EFFB1207888051AC18AD19EEFAEFFB12A1
:10524300078E80447402121C8F880C890D780C120F
:105253001EBC7402121C9FEEFAEFFB120794740239
:10526300121C4F8023AC18AD19EEFAEFFB12079A0C
:10527300E9F870167402121C85E4F0803CAC18AD9A
:1052830019EEFAEFFB1207A0E9F8E8602C8E828F83
:1052930083A3E064146022850A82850B83E0900275
:1052A300E5F0851882851983125B6B9002E612572D
:1052B300ADE8A31252CF12028AEEFAEFFB1206F800
:1052C3007402121C85E0F97403026D7FF07CE57DA6
:1052D30002850882850983125B6F2274E8121CA978
:1052E30074FA121C397404121C85ECF0A3EDF08AD5
:1052F300128B13EA2405F50EE43513F50FEA2402A5
:10530300F510E43513F511851082F583125B6B12EA
:1053130003DA8A0A8B0B7508007C037D0079007A17
:10532300E57B021216EEE50E2402F516E4350FF5C1
:10533300177402121C8F880C890D780C121EBC8501
:105343000E82850F83A3A3A3A3E0F50C750D00784C
:105353000C121EBCE50E2405F50CE4350FF50D7893
:105363000C121EBC851682851783125E7212065CB0
:105373007406121C4F8A0C8B0DE50C450D7003024D
:1053830054FF8020851882851983E088828983F001
:105393000508851882851983A3E0C0E0125540D023
:1053A300E0F00508E50A24FBFAE50B34FFFBC3E54F
:1053B300089AE49B40030254FF7E007F008512821B
:1053C300851383A3A3A3A3E0F5097809121EC0E400
:1053D300F514F5157814121EBC7514E275150278D0
:1053E30014121EBC9002E3121ED37409121C851200
:1053F3001ED3E50A24F9F9AC0CAD0D851082851195
:1054030083125B6B1207CA7409121C4FE960030213
:1054130054A0850E82850F83A3A3A3A3A3A3A3E014
:10542300F89002E2E0687075E0F5148E15781412B6
:105433001EBC126AFC850E82850F83A3A3A3A3A3BC
:10544300A3A3A3125B6B1216E87402121C4FE9604C
:105453004C9002E6125B9A703BE4F5147814121E2A
:10546300BC7CFF7DFF7907851082851183125B6BFE
:105473001207347402121C4F125BA07017850E8240
:10548300850F83126C997404121C8512655A125E7F
:10549300A3025533850C82850D83125536A818A9AE
:1054A30019881489157814121EBC7404121C8512F1
:1054B3001ED38516828517831257A31206687404B8
:1054C300121C4F8A0C8B0DEE4F700302537C125546
:1054D30040EE12554B125E59EF12554BF8A3E034D0
:1054E30000F9E50C450D60030253878882898374B4
:1054F300FFF0050812554074FFF00508E508601A2F
:105503001313543F1257B312029CE960099002E649
:10551300125B6B12176079008016850E82850F83EC
:10552300126C997404121C8512655A1261C2790AAD
:10553300025E2CA3A3A3A3E0FEA3E0FF22A808908E
:1055430002E6E028125E5922F00508089002E6E020
:10555300282274E8121CA974FA121C397402121C52
:10556300851257AD7404121C85ECF0A3EDF07402A0
:10557300121C85E02405125E42E0F50CA3E0F50D54
:105583007402121C85E02402F510A3E03400F51127
:10559300851082F583125B6B1203DA7508007509B7
:1055A30000EA24FCFEEB34FFFF8008050CE50C70D9
:1055B30002050DA808C3EE98EF9400500302575F4D
:1055C300A818A919880E890F780E121EBC8514829B
:1055D300851583A3A3A3A3126B03121EBCE5142496
:1055E30005F50EE43515F50F780E121EBC851482F1
:1055F3008515831257A112065C7406121C4F8A0E7E
:105603008B0FEA450F700302575FEA2404F516E493
:10561300350FF517851682F583E0F50CA3E0F50D3C
:10562300851882851983126AFF8A828B83A3A3A3B9
:10563300E0F9851082851183125B6B12064AE9F546
:1056430009600302575F7402121C85125E69F50933
:105653007809121EC0E4F512F5137812121EBC75F8
:1056630012E27513027812121EBC9002E3121ED3CB
:105673007407121C85121ED3EEF9AC0EAD0F851004
:1056830082851183125B6B1207CA7409121C4FE9DE
:10569300F509600302575FE508703FE4F50EF50F67
:1056A300780E121EBC7CFF7DFF790985108285115F
:1056B30083125B6B1207347402121C4F125E8F70DD
:1056C3000D7404121C851257967911025793900298
:1056D300E2E024029002E6F080149002E6E0FA9001
:1056E30002E2E0790024025001096A497072A808B5
:1056F3009002E2E0FAE82AFAE43400FBEE9AEF9B28
:10570300405A851682851783E0C0E09002E7125560
:1057130045D0E0F00508851682851783A3E0C0E035
:10572300089002E7125545D0E0F005089002E21216
:105733006B03121EBC126AFCA808125E361216D640
:105743007402121C4F9002E2E02508F50874FF650D
:105753000C700474FF650D60030255AEE508601F0D
:105763009002E6E0F5F0E508841257B31202A2E9CD
:1057730060099002E7125B6B12176079008011E5F4
:1057830009700375090A7404121C85125796A90936
:10579300025E2C125FD1E50CF0A3E50DF022A3A36A
:1057A300126D8EAA0CAB0D22A3A3EAF0A3EBF02299
:1057B3009002E5F07CE57D02851082851183125B02
:1057C3006F2274EC121CA974FC121C391262D2747D
:1057D30002121C9F125B651206628A0C8B0DEA454E
:1057E3000D700302589D1258ADA818A91988108985
:1057F300117810121EBC7CFF7DFF790B8508828512
:105803000983125B6B1207347402121C4F1259A3E3
:10581300700C850A82850B83125EA00258AA8E82C1
:105823008F83A3A3A3A3E0F5127812121EC0E4F59D
:1058330012F5137812121EBC7512E5751302781255
:10584300121EBC7810121EBC7409121C85121ED3C2
:105853007409121C85E0F9AC0CAD0D85088285092D
:1058630083125B6B1207CA7409121C4FE9FE701591
:105873007CE57D02850882850983125B6B1202A891
:10588300E97009802074166E70027E009002E612A1
:105893005B6B121760EE7004800B7E01850A8285B4
:1058A3000B831261BFEEF90261D4EE2402F508E422
:1058B3003FF5092274EC121CA974FC121C39EAFE90
:1058C300EBFF8C0E8D0FEE2405F508E43FF509740C
:1058D30002121C9F850882850983125B6B12066284
:1058E3008A0C8B0DEA450D7003025993EE2402F5E1
:1058F3000AE43FF50BA818A919881089117810122A
:105903001EBC7CFF7DFF790D125B651207347402A8
:10591300121C4F1259A3700B850882850983125EEE
:10592300A0807A8E828F83A3A3A3A3E0F5127812BB
:10593300121EC0850882850983A3A3121ED3751284
:10594300E57513027812121EBC7810121EBC74097E
:10595300121C85121ED37409121C85E0F9125B61B7
:105963001207CA7409121C4FE9FE700F7CE57D0211
:10597300125B651202AEE97009802074166E700224
:105983007E009002E6125B6B121760EE7004800BD0
:105993007E018508828509831261BFEEF90261D415
:1059A300125BAAF510A3E0F511EA45112274E8127F
:1059B3001CA974FE121C398A168B178C148D15EAD8
:1059C3002405F50CE43517F50DEA2402F50EE4354C
:1059D30017F50F850E82F583125B6B1203DA8A08C3
:1059E3008B09750B007C037D0079007AE57B02123D
:1059F30016EE750A00E50814F5100424FFF508E512
:105A03000934FFF50980549002E5E0FA9002E2E0E0
:105A1300F8EA28F8E43400F9E50898E50999500D07
:105A23009002E5E0F8E510C3989002E2F0E0F51289
:105A33007513007812121EBC126AFC9002E6E02A6B
:105A4300FAA3E03400FB1216D67402121C4F900224
:105A5300E2E0F89002E5E028F0050A850C82850D66
:105A630083A3A31264764003025B469002E5E0C37E
:105A73009508E495094003025B46AE0AEE2EFEE468
:105A830033FF125B85AC18AD19126B17E439FB12A7
:105A930006628A128B13AC12AD13EC4D701B750B9F
:105AA30001125B751261C39002E61250C2600312C9
:105AB3001760A90B7402025E2E851682851783A3D5
:105AC300A3A3A3E0F50B780B121EC0E4F512F513A4
:105AD3007812121EBC7512E27513027812121EBCE4
:105AE3009002E3121ED37407121C85121ED3A91051
:105AF300850E82850F83125B6B1207CA7409121C11
:105B03004FE9F50B709B9002E6125B9A6003025A11
:105B13000AE4F512F5137812121EBC7CFF7DFF799F
:105B23000F850E82850F83125B6B1207347402128A
:105B33001C4F125BA06003025A0A125B75125EA42B
